{
  "contractName": "EventsContract",
  "abi": [
    {
      "inputs": [],
      "payable": false,
      "stateMutability": "nonpayable",
      "type": "constructor"
    },
    {
      "anonymous": false,
      "inputs": [
        {
          "indexed": true,
          "internalType": "address",
          "name": "who",
          "type": "address"
        },
        {
          "indexed": false,
          "internalType": "string",
          "name": "name",
          "type": "string"
        },
        {
          "indexed": false,
          "internalType": "uint256",
          "name": "howmuch",
          "type": "uint256"
        }
      ],
      "name": "BidFailed",
      "type": "event"
    },
    {
      "anonymous": false,
      "inputs": [
        {
          "indexed": true,
          "internalType": "address",
          "name": "who",
          "type": "address"
        },
        {
          "indexed": false,
          "internalType": "string",
          "name": "name",
          "type": "string"
        },
        {
          "indexed": false,
          "internalType": "uint256",
          "name": "howmuch",
          "type": "uint256"
        }
      ],
      "name": "NewHighBid",
      "type": "event"
    },
    {
      "constant": true,
      "inputs": [],
      "name": "highBidder",
      "outputs": [
        {
          "internalType": "address",
          "name": "bidder",
          "type": "address"
        },
        {
          "internalType": "string",
          "name": "bidderName",
          "type": "string"
        },
        {
          "internalType": "uint256",
          "name": "bid",
          "type": "uint256"
        }
      ],
      "payable": false,
      "stateMutability": "view",
      "type": "function"
    },
    {
      "constant": false,
      "inputs": [
        {
          "internalType": "string",
          "name": "bidderName",
          "type": "string"
        }
      ],
      "name": "bid",
      "outputs": [],
      "payable": true,
      "stateMutability": "payable",
      "type": "function"
    }
  ],
  "bytecode": "0x608060405262069780420160005534801561001957600080fd5b50670de0b6b3a764000060016002018190555061063a8061003b6000396000f3fe6080604052600436106100295760003560e01c80633ce123dc1461002e5780637aef951c146100f8575b600080fd5b34801561003a57600080fd5b506100436101b3565b604051808473ffffffffffffffffffffffffffffffffffffffff1673ffffffffffffffffffffffffffffffffffffffff16815260200180602001838152602001828103825284818151815260200191508051906020019080838360005b838110156100bb5780820151818401526020810190506100a0565b50505050905090810190601f1680156100e85780820380516001836020036101000a031916815260200191505b5094505050505060405180910390f35b6101b16004803603602081101561010e57600080fd5b810190808035906020019064010000000081111561012b57600080fd5b82018360208201111561013d57600080fd5b8035906020019184600183028401116401000000008311171561015f57600080fd5b91908080601f016020809104026020016040519081016040528093929190818152602001838380828437600081840152601f19601f820116905080830192505050505050509192919290505050610283565b005b60018060000160009054906101000a900473ffffffffffffffffffffffffffffffffffffffff1690806001018054600181600116156101000203166002900480601f0160208091040260200160405190810160405280929190818152602001828054600181600116156101000203166002900480156102735780601f1061024857610100808354040283529160200191610273565b820191906000526020600020905b81548152906001019060200180831161025657829003601f168201915b5050505050908060020154905083565b6000544210156104ef576001600201543411156103c15733600160000160006101000a81548173ffffffffffffffffffffffffffffffffffffffff021916908373ffffffffffffffffffffffffffffffffffffffff160217905550806001800190805190602001906102f6929190610560565b50346001600201819055503373ffffffffffffffffffffffffffffffffffffffff167fd7f5ff45ff6e232308acbf841d8134c8c65dd893722727b64eef24b489fb893d82346040518080602001838152602001828103825284818151815260200191508051906020019080838360005b83811015610381578082015181840152602081019050610366565b50505050905090810190601f1680156103ae5780820380516001836020036101000a031916815260200191505b50935050505060405180910390a26104ea565b3373ffffffffffffffffffffffffffffffffffffffff167faab6e917b2089e850050512474058e20b2f6dfb93b76ac38d1921588535627d282346040518080602001838152602001828103825284818151815260200191508051906020019080838360005b83811015610441578082015181840152602081019050610426565b50505050905090810190601f16801561046e5780820380516001836020036101000a031916815260200191505b50935050505060405180910390a26040517f08c379a00000000000000000000000000000000000000000000000000000000081526004018080602001828103825260128152602001807f5468726f7720616e20657863657074696f6e000000000000000000000000000081525060200191505060405180910390fd5b61055d565b6040517f08c379a00000000000000000000000000000000000000000000000000000000081526004018080602001828103825260128152602001807f5468726f7720616e20657863657074696f6e000000000000000000000000000081525060200191505060405180910390fd5b50565b828054600181600116156101000203166002900490600052602060002090601f016020900481019282601f106105a157805160ff19168380011785556105cf565b828001600101855582156105cf579182015b828111156105ce5782518255916020019190600101906105b3565b5b5090506105dc91906105e0565b5090565b61060291905b808211156105fe5760008160009055506001016105e6565b5090565b9056fea265627a7a7231582039bc79fb1892eff2b2125db5aaba340258dccc16c4bd558c12ae0d31c13716f764736f6c63430005100032",
  "source": "pragma solidity >=0.4.22 <0.9.0;\r\n\r\ncontract EventsContract {\r\n    // Represents the time when the bidding will end\r\n    uint biddingEnds = now + 5 days;\r\n\r\n    struct HighBidder {\r\n        address bidder;\r\n        string bidderName;\r\n        uint bid;\r\n    }\r\n\r\n    // Variable of type HighBidder\r\n    HighBidder public highBidder;\r\n\r\n    // Events emitted by contract\r\n    // Whenever a high bid is received\r\n    event NewHighBid(address indexed who, string name, uint howmuch);\r\n\r\n    // High bid preceded by this event\r\n    event BidFailed(address indexed who, string name, uint howmuch);\r\n\r\n    // Ensures that bid can be received i.e, auction not ended\r\n    modifier timed {\r\n        if(now < biddingEnds){\r\n            _;\r\n        } else {\r\n            /**throw an exception */\r\n            revert(\"Throw an exception\");\r\n        }\r\n    }\r\n\r\n    constructor() public {\r\n        // Starts the bidding at 1 ether\r\n        highBidder.bid = 1 ether;\r\n    }\r\n\r\n    \r\n    // Payable since ether should be coming along\r\n    // Timed, we need to end this bidding in 5 days\r\n    function bid(string memory bidderName) public payable timed {\r\n        if(msg.value > highBidder.bid) {\r\n            highBidder.bidder = msg.sender;\r\n            highBidder.bidderName = bidderName;\r\n            highBidder.bid = msg.value;\r\n            // Received a high bid - emit event\r\n            emit NewHighBid(msg.sender, bidderName, msg.value);\r\n        } else {\r\n            // Received bid less than high bid emit event\r\n            emit BidFailed(msg.sender, bidderName, msg.value);\r\n            // throwing exception would return the ethers\r\n            revert(\"Throw an exception\");\r\n        }\r\n    }\r\n}",
  "sourcePath": "E:/ws/solidity/solidity/contracts/EventsContract.sol",
  "compiler": {
    "name": "solc",
    "version": "0.5.16+commit.9c3226ce.Emscripten.clang"
  },
  "schemaVersion": "3.4.1",
  "updatedAt": "2021-07-29T17:11:28.059Z",
  "devdoc": {
    "methods": {}
  },
  "userdoc": {
    "methods": {}
  }
}