{
  "contractName": "GlobalContract",
  "abi": [
    {
      "constant": true,
      "inputs": [],
      "name": "lastCaller",
      "outputs": [
        {
          "internalType": "string",
          "name": "",
          "type": "string"
        }
      ],
      "payable": false,
      "stateMutability": "view",
      "type": "function"
    },
    {
      "constant": true,
      "inputs": [],
      "name": "etherUnitsTest",
      "outputs": [
        {
          "internalType": "bool",
          "name": "",
          "type": "bool"
        }
      ],
      "payable": false,
      "stateMutability": "pure",
      "type": "function"
    },
    {
      "constant": true,
      "inputs": [],
      "name": "timeUnits",
      "outputs": [
        {
          "internalType": "uint256",
          "name": "",
          "type": "uint256"
        }
      ],
      "payable": false,
      "stateMutability": "view",
      "type": "function"
    },
    {
      "constant": true,
      "inputs": [],
      "name": "getBlockInformation",
      "outputs": [
        {
          "internalType": "uint256",
          "name": "number",
          "type": "uint256"
        },
        {
          "internalType": "bytes32",
          "name": "hash",
          "type": "bytes32"
        },
        {
          "internalType": "address",
          "name": "coinbase",
          "type": "address"
        },
        {
          "internalType": "uint256",
          "name": "difficulty",
          "type": "uint256"
        }
      ],
      "payable": false,
      "stateMutability": "view",
      "type": "function"
    },
    {
      "constant": true,
      "inputs": [],
      "name": "getMsgInformation",
      "outputs": [
        {
          "internalType": "bytes",
          "name": "data",
          "type": "bytes"
        },
        {
          "internalType": "bytes4",
          "name": "sig",
          "type": "bytes4"
        },
        {
          "internalType": "address",
          "name": "sender",
          "type": "address"
        }
      ],
      "payable": false,
      "stateMutability": "view",
      "type": "function"
    }
  ],
  "bytecode": "0x60806040526040518060400160405280600781526020017f6e6f742d736574000000000000000000000000000000000000000000000000008152506000908051906020019061004f929190610062565b5034801561005c57600080fd5b50610107565b828054600181600116156101000203166002900490600052602060002090601f016020900481019282601f106100a357805160ff19168380011785556100d1565b828001600101855582156100d1579182015b828111156100d05782518255916020019190600101906100b5565b5b5090506100de91906100e2565b5090565b61010491905b808211156101005760008160009055506001016100e8565b5090565b90565b61041b806101166000396000f3fe608060405234801561001057600080fd5b50600436106100575760003560e01c80630c3174381461005c5780632113522a1461007e5780638e663b061461010157806391ac446b146101fc578063de7066f11461021a575b600080fd5b610064610279565b604051808215151515815260200191505060405180910390f35b610086610290565b6040518080602001828103825283818151815260200191508051906020019080838360005b838110156100c65780820151818401526020810190506100ab565b50505050905090810190601f1680156100f35780820380516001836020036101000a031916815260200191505b509250505060405180910390f35b61010961032e565b6040518080602001847bffffffffffffffffffffffffffffffffffffffffffffffffffffffff19167bffffffffffffffffffffffffffffffffffffffffffffffffffffffff191681526020018373ffffffffffffffffffffffffffffffffffffffff1673ffffffffffffffffffffffffffffffffffffffff168152602001828103825285818151815260200191508051906020019080838360005b838110156101bf5780820151818401526020810190506101a4565b50505050905090810190601f1680156101ec5780820380516001836020036101000a031916815260200191505b5094505050505060405180910390f35b6102046103aa565b6040518082815260200191505060405180910390f35b6102226103ca565b604051808581526020018481526020018373ffffffffffffffffffffffffffffffffffffffff1673ffffffffffffffffffffffffffffffffffffffff16815260200182815260200194505050505060405180910390f35b600080670de0b6b3a7640000801490508091505090565b60008054600181600116156101000203166002900480601f0160208091040260200160405190810160405280929190818152602001828054600181600116156101000203166002900480156103265780601f106102fb57610100808354040283529160200191610326565b820191906000526020600020905b81548152906001019060200180831161030957829003601f168201915b505050505081565b60606000806000368080601f016020809104026020016040519081016040528093929190818152602001838380828437600081840152601f19601f8201169050808301925050505050505092506000357fffffffff00000000000000000000000000000000000000000000000000000000169150339050909192565b6000804290506305265c008114156103c557809150506103c7565b505b90565b600080600080439350600184034092504191504490509091929356fea265627a7a72315820a7508d1de79c918e4d2fc95655cdc9a8491330dc56a01ce67f7af4c1c789404564736f6c63430005100032",
  "source": "pragma solidity >=0.4.22 <0.9.0;\r\n\r\ncontract GlobalContract {\r\n    string public lastCaller = \"not-set\";\r\n\r\n    function etherUnitsTest() public pure returns (bool) {\r\n        bool value = (1 ether == 1000 finney);\r\n        return value;\r\n    }\r\n\r\n    function timeUnits() public view returns (uint) {\r\n        uint timeNow = now;\r\n\r\n        if (timeNow == 1000 days) {\r\n            return timeNow;\r\n        }\r\n    }\r\n\r\n    function getBlockInformation() public view returns (uint number, bytes32 hash, address coinbase, uint difficulty) {\r\n        number = block.number;\r\n        hash = blockhash(number - 1);\r\n\r\n        coinbase = block.coinbase;\r\n        difficulty = block.difficulty;\r\n    }\r\n\r\n    function getMsgInformation() public view returns (bytes memory data, bytes4 sig, address sender) {\r\n        data = msg.data;\r\n        sig = msg.sig;\r\n        sender = msg.sender;\r\n    }\r\n}",
  "sourcePath": "E:/ws/solidity/solidity/contracts/GlobalContract.sol",
  "compiler": {
    "name": "solc",
    "version": "0.5.16+commit.9c3226ce.Emscripten.clang"
  },
  "schemaVersion": "3.4.1",
  "updatedAt": "2021-07-29T16:20:28.725Z",
  "devdoc": {
    "methods": {}
  },
  "userdoc": {
    "methods": {}
  }
}