{
  "contractName": "ModifierContract",
  "abi": [
    {
      "constant": true,
      "inputs": [],
      "name": "minimum_bidding_amount",
      "outputs": [
        {
          "internalType": "uint256",
          "name": "",
          "type": "uint256"
        }
      ],
      "payable": false,
      "stateMutability": "view",
      "type": "function"
    },
    {
      "constant": false,
      "inputs": [],
      "name": "bid",
      "outputs": [
        {
          "internalType": "bool",
          "name": "",
          "type": "bool"
        }
      ],
      "payable": true,
      "stateMutability": "payable",
      "type": "function"
    }
  ],
  "bytecode": "0x6080604052600a60005534801561001557600080fd5b5060c3806100246000396000f3fe60806040526004361060265760003560e01c80631998aeef14602b5780639c77606f14604b575b600080fd5b60316073565b604051808215151515815260200191505060405180910390f35b348015605657600080fd5b50605d6088565b6040518082815260200191505060405180910390f35b600080543411608157600080fd5b6001905090565b6000548156fea265627a7a72315820f24801609d0638fea573da34525d5b93b43e937bc2b9436a75b89936e0fa0b5364736f6c63430005100032",
  "source": "pragma solidity >=0.4.22 <0.9.0;\r\n\r\ncontract ModifierContract {\r\n    uint  public minimum_bidding_amount = 10;\r\n\r\n    modifier MustBeGreaterThanMinimum  {\r\n        if(msg.value <= minimum_bidding_amount ) {\r\n            revert();\r\n        }\r\n        _;\r\n    }\r\n\r\n    function bid() payable public MustBeGreaterThanMinimum returns (bool) {\r\n        return true;            \r\n    }\r\n\r\n}",
  "sourcePath": "E:/ws/solidity/solidity/contracts/ModifierContract.sol",
  "compiler": {
    "name": "solc",
    "version": "0.5.16+commit.9c3226ce.Emscripten.clang"
  },
  "schemaVersion": "3.4.1",
  "updatedAt": "2021-07-29T17:11:28.061Z",
  "devdoc": {
    "methods": {}
  },
  "userdoc": {
    "methods": {}
  }
}